:020000040800F2
:1000000000000220D13400083D1C00083F1C0008FD
:10001000411C0008431C0008451C000800000000AB
:10002000000000000000000000000000471C000865
:10003000491C0008000000004B1C00084D1C000873
:100040002135000821350008213500082135000838
:100050002135000821350008213500082135000828
:100060002135000821350008213500082135000818
:100070002135000821350008213500082135000808
:1000800021350008213500082135000821350008F8
:1000900021350008213500082135000821350008E8
:1000A00021350008213500082135000821350008D8
:1000B000511C0008213500082135000821350008B1
:1000C00021350008213500082135000821350008B8
:1000D00021350008213500082135000821350008A8
:1000E0002135000821350008213500082135000898
:1000F0002135000821350008213500082135000888
:100100002135000821350008213500082135000877
:100110002135000821350008213500082135000867
:100120002135000821350008213500082135000857
:10013000213500080000000000000000691C0008D4
:100140005D1C000821350008213500082135000814
:100150002135000821350008213500082135000827
:100160002135000821350008213500082135000817
:100170002135000821350008213500080000000065
:100180000000000021350008000000000000000011
:1001900021350008000000000000000021350008A3
:1001A00000000000000000000000000021350008F1
:1001B00021350008213500082135000821350008C7
:0401C00021350008DD
:1001C40010B5054C237833B9044B13B10448AFF38D
:1001D40000800123237010BD640300200000000090
:1001E4003436000808B5034B1BB103490348AFF389
:1001F400008008BD000000006803002034360008B9
:1002040053B94AB9002908BF00281CBF4FF0FF3179
:100214004FF0FF3001F0F6B8ADF1080C6DE904CEF3
:1002240000F006F8DDF804E0DDE9022304B07047CD
:100234002DE9F0478C460D460446089E002B51D10B
:100244008A4217466DD9B2FA82FEBEF1000F0BD076
:10025400CEF1200C01FA0EF520FA0CFC02FA0EF78E
:100264004CEA050C00FA0EF44FEA174A250CBCFBC5
:10027400FAF81FFA87F90AFB18CC45EA0C4508FB83
:1002840009F3AB420AD9ED1908F1FF3280F023815A
:10029400AB4240F22081A8F102083D44ED1AA4B219
:1002A400B5FBFAF00AFB105544EA054400FB09F9D2
:1002B400A14509D9E41900F1FF3380F00A81A14571
:1002C40040F2078102383C44A4EB090440EA0840A8
:1002D4000021002E61D024FA0EF4002334607360F0
:1002E400BDE8F0878B4207D9002E54D0002186E860
:1002F40021000846BDE8F087B3FA83F1002940F0F5
:100304008E80AB4202D3824200F2FA80841A65EBFB
:1003140003050120AC46002E3FD086E81010BDE84E
:10032400F08712B90127B7FBF2F7B7FA87FEBEF1DF
:10033400000F34D1EB1B3A0C1FFA87FC0121B3FBED
:10034400F2F8250C02FB183345EA03450CFB08F3CD
:10035400AB4207D9ED1908F1FF3002D2AB4200F2EB
:10036400D1808046ED1AA3B2B5FBF2F002FB105522
:1003740043EA05440CFB00FCA44507D9E41900F149
:10038400FF3302D2A44500F2B8801846A4EB0C0453
:1003940040EA08409DE731463046BDE8F087CEF19B
:1003A400200405FA0EF307FA0EF720FA04F83A0CC3
:1003B40025FA04F448EA0308B4FBF2F14FEA1845BD
:1003C40002FB11441FFA87FC45EA044501FB0CF3C8
:1003D400AB4200FA0EF409D9ED1901F1FF3080F0B7
:1003E4008A80AB4240F2878002393D44EB1A1FFAFF
:1003F40088F5B3FBF2F002FB103345EA034500FB3A
:100404000CF3AB4207D9ED1900F1FF386FD2AB42C0
:100414006DD902383D44EB1A40EA01418FE7C1F13E
:10042400200722FA07F88B4005FA01F448EA03038F
:1004340020FA07FE4FEA134CFD404EEA040EB5FBCA
:10044400FCF94FEA1E440CFB19551FFA83F844EAE1
:10045400054509FB08F4AC4202FA01F200FA01FA7C
:1004640008D9ED1809F1FF3043D2AC4241D9A9F1C2
:1004740002091D442D1B1FFA8EFEB5FBFCF00CFB7C
:1004840010554EEA054400FB08F8A04507D9E418C6
:1004940000F1FF3529D2A04527D902381C4440EA8F
:1004A4000940A4EB0804A0FB02894C45C6464D460E
:1004B40015D312D056B1BAEB0E0364EB050404FA5B
:1004C40007F7CB401F43CC40376074600021BDE880
:1004D400F0871846F8E69046E0E6C245EAD2B8EB63
:1004E400020E69EB03050138E4E72846D7E74046E6
:1004F40091E78146BEE7014678E702383C4445E788
:10050400084608E7A8F102083D442BE703685A00AF
:100514004CBF43F0004323F000431844704700BF2E
:1005240061B32DE9F84F01F1FF3A90460646D146F2
:10053400002707EB090404EBD4746410E500711977
:100544000846FFF7E3FFA245834605F1080030445F
:1005540009D0FFF7DBFFC34500F1FF3005D8404564
:1005640009D2671CE5E7C34505D9A74202D004F1C7
:10057400FF39DEE700210846BDE8F88F08467047DA
:10058400012807D0022807D0044B00280CBF1846C6
:10059400002070470248704702487047890C0008E1
:1005A4008D0C0008910C000830B5244B83B0044630
:1005B4008D1E7BB301A92846AFF3008020B30199B7
:1005C4002A46FFF7ADFF0146F0B1FFF79FFF4B68E6
:1005D400A064012B12D0002B01F1040020DBFFF7F3
:1005E40095FF0023E06423650368002B1CDBFFF701
:1005F4008DFF00232061184603B030BD0023236122
:100604000523184603B030BD00232361092318468F
:1006140003B030BD0A490B48091AC9100191CFE74C
:100624000123E0642365DFE7C3F30360FFF7A8FF5A
:100634000028206114BF00230923DCE70000000028
:1006440094370008AC3600080368DA0710B504468E
:1006540006D49B0700F1480009D500F051FC23683B
:10066400590709D51A070ED5DB0613D510BD00F0BE
:100674003FFC23685907F5D404F1D00000F048FC8E
:1006840023681A07F0D404F5A87000F049FC236825
:10069400DB06EBD404F5E870BDE8104000F084BC40
:1006A400036803B103441846704700BF092070472C
:1006B400704700BF70B504460D4608E02B6C6361BB
:1006C4002A462369214601209847082808D1296C25
:1006D4002046FFF769FF06460028EFD002F052FFDC
:1006E4000728FBD13046296CFFF7E2FF281D00F0F4
:1006F400F3FB00BF2DE9F0470C1D054692460FCCD5
:10070400ADF5727D03AE0FC60FCC0FC60FCC0FC66E
:1007140094E80F0002ACD5F80C80D5F8189086E860
:100724000F0000232846216C2360FFF73DFFBAF138
:10073400000F074614BF0A2609267FB1A36B46F0B3
:1007440010018DE810022A46636401202B46C0473D
:1007540078BB38460DF5727DBDE8F087236C6B617C
:100764004FF4F07221467AA802F013FF2B697AAA9B
:10077400294630469847889B82468DE810023146C8
:1007840063642A462B460120C04790B94FF4F072A7
:100794007AA9204602F0FDFEBAF1080F06D1216CB9
:1007A4002846FFF701FF09260746C6E7BAF1070FF7
:1007B40005D0092738460DF5727DBDE8F087384627
:1007C400216CFFF775FF03A800F086FB406C7047AF
:1007D400F0B5CB6B0B640E1D0F4604460FCEF9B07B
:1007E40001AD0FC50FCE0FC50FCE0FC596E80F0094
:1007F4004FF0FF3685E80F00009606E023696A464D
:10080400214698470828054608D110992046FFF745
:10081400CBFE0028F2D0092079B0F0BD6846FFF77E
:1008240013FF062DF7D139462046FFF743FF00BFDB
:1008340030B4DD6BC160826119461D64002230BC96
:1008440058E700BF70B5C66843690B6426B101223E
:10085400FFF750FF02F096FE03690A4604460D4670
:10086400014602209847072807D0082803D12946C3
:100874002046FFF71FFF02F085FE3046296CFFF784
:1008840017FF281D00F028FBC2681AB1CA6B0A645E
:1008940000222FE79CE700BF704700BF836813B1B5
:1008A400014601201847704700B5042907D8DFE83E
:1008B40001F00309060909000BB90F2A05D9022022
:1008C4005DF804FB01205DF804FB00EB820218468E
:1008D4005368019A13605DF804FB00BF10B584B03F
:1008E400002303AC0A4600941946FFF7DDFF039882
:1008F40004B010BD00B5042907D8DFE801F00309EE
:10090400060909000BB90F2A05D902205DF804FB7A
:1009140001205DF804FB019900EB82020968516033
:1009240018465DF804FB00BF10B584B004AC002386
:1009340044F8042D0A4600941946FFF7DBFF04B07F
:1009440010BD00BFF0B5D36B1364151D07460E46EA
:100954000FCDADF50F7D17AC0FC40FCD0FC40FCD68
:100964000FC495E80F004FF0FF3584E80F0016958B
:1009740010E016A8FFF7D8FF314616A8B84716AA04
:10098400694678B9049B08209847052804460AD08C
:10099400092807D026996846FFF706FE6A460C2107
:1009A4000028E6D0092416A8FFF74EFE20460DF5D0
:1009B4000F7DF0BD2DE9F04F0D46C96C8BB00C1DB9
:1009C400096807919146089400F0030B1E46002B1A
:1009D40060D10902032307918DF825608DF8243036
:1009E4002B6DBBF1020F08BFAC6B13F0010340D1B8
:1009F400019300F008030393D4F80080B8F1000FCA
:100A040039D0022E43D0B4F8008067880434AB6C2C
:100A140027F0010A0F2148469A44FFF75FFF8245F9
:100A240033D828F001039A4450452CBF00200120FC
:100A34007F0007F0020708F0010847EA0807012FC2
:100A44003ED035D3022F1CD1236823F000420292FA
:100A5400BBF1000F76D128B1039900297ED0002A7A
:100A640000F0A680002B77DB029B013304EB8304A8
:100A7400C2E700230193022E3EDDFFF717FE002894
:100A840040D009200BB0BDE8F08F0020D0E76768A4
:100A94000834BCE7022BA3DC0B0CDAB209048DF892
:100AA4002530022304EB820407918DF8243097E764
:100AB400BBF1000F02D0002840F0BD8004349BE756
:100AC400BBF1000F25D1A8B194E80C00991C4FEAA2
:100AD400D272D6D005F158010133069100F0A380FB
:100AE400201DFFF7DDFD06AB01462846AFF300806D
:100AF400002877D108347FE707A9484600F0EEFACA
:100B04000028BED1019B002B5CD108200BB0BDE8AE
:100B1400F08F0D2148462F6AFFF7E0FE8742E9D1A6
:100B2400AB6A9C42E6D12046FFF7F0FC0F21024657
:100B34004846FFF7F9FE48462A460021FFF7F4FE2F
:100B440007209FE70D2148462F6AFFF7C7FE87421B
:100B540058D02368002B87DA043485E7029B3BB323
:100B640005F15803271DCDF810B0DDF80C80DDF831
:100B740008A00596A3461C4602E0B245B04616D02E
:100B840038460694FFF78CFD06AB01460022284642
:100B9400AFF3008008F1010604370028EDD0029B72
:100BA400059E43455C46DDF810B0D2D100E05C46BA
:100BB40048460D21FFF792FE069B2862AC626B62E9
:100BC40006205FE70F214846FFF788FE0E21024604
:100BD4004846FFF7A9FE4846294A0F21FFF7A4FE1D
:100BE40007204FE707460D214846FFF777FE022FFF
:100BF40028621DD12B46069A43F82C2F6B62AC62F7
:100C040006203FE7AB6A9C42A3D104220027A31825
:100C14000299A962EF622A636B632368BB421DDBFE
:100C24000123019320E748460D21FFF757FE286270
:100C3400069B6B62E3E72046FFF768FC0434064634
:100C4400AC632846AFF3008000283FF41AAF48464F
:100C540032460F21FFF768FE072013E708460130EC
:100C640004EB8000FFF752FC0F2102464846FFF7D1
:100C74005BFE48462A463946FFF756FE072001E741
:100C840000000000002395E6012393E6022391E689
:100C9400F0B50446C5B004290DD8DFE801F05303CC
:100CA4000C310F00012B4FEA124695B262D1721932
:100CB400102A40F29B80022045B0F0BD002BFAD1EF
:100CC400102AF8D82368D80600F1C68022AE304630
:100CD400019200F073F9A06B019A0023012505FA33
:100CE40003F1114203D0016846F8231004300133A4
:100CF400042BF4D1A063304600F056F90020DBE762
:100D0400032BD8D1150C97B2EB19102BD3D8236829
:100D14001E0700F1B58022AE304600F023F9ED0045
:100D2400A36B4FB1043D711903EBC70053F8042BB7
:100D340041F8042F8342F9D13046A36300F0F0F860
:100D44000020B9E7002BB6D1A56B97B2201D012670
:100D540006FA03F1394203F1010302D02968016064
:100D64000435102B00F10400F2D112F400503BD1F1
:100D7400A563A1E7052B9ED17719202F9BD80F2EB1
:100D840066D92F46002D3AD12A460027002AA06BA7
:100D940072DD00EBC202014644A800EBC6008C38A9
:100DA40051F8045B40F8045F9142F9D1084697B1C9
:100DB400102E324644A938BF102201EBC202A2F51C
:100DC400C4727900043A00EB810150F8045B42F8E4
:100DD400045F8842F9D1012B48D00F2EA16333D987
:100DE40017B102A800F094F8002065E70F2E3FF633
:100DF40062AF00272268D10717D4002F60D0226881
:100E0400510745D4012B4DD00F2E06D822A80193AB
:100E140000F07AF8019B002FB6D002A8019300F0ED
:100E24007BF8019BC6F11002B0E722F00101052B0B
:100E34002160019320463BD022F0030240F8482B66
:100E440000F05AF8019BD8E722A800F059F8C7E748
:100E5400102FCED9103FCDE723F01003236004F503
:100E6400E870019200F0AAF8019A2FE70431A16317
:100E740022A800F03DF8B7E7002F99D10146AAE770
:100E840023F00803236004F5A87000F06BF842E730
:100E9400204622F0040240F8D02B019300F03CF8E5
:100EA400019BAFE722A8019300F026F8019BB9E764
:100EB40041F0020140F8481B00F026F8019B9CE732
:100EC400012B03D00F2E3FF65FAF9FE722A80193BB
:100ED40000F012F8019B57E700F1340191E8380063
:100EE4009C46A6464CF8045D90E8FF0FE54600BD1D
:100EF40090EC210B704700BF80EC210B704700BFC2
:100F040090EC200B704700BF80EC200B704700BFB3
:100F1400D0EC200B704700BFC0EC200B704700BF23
:100F2400F0EC0201F0EC0211F0EC0221F0EC0231E1
:100F3400F0EC0241F0EC0251F0EC0261F0EC0271D1
:100F4400F0EC0281F0EC0291F0EC02A1F0EC02B1C1
:100F5400F0EC02C1F0EC02D1F0EC02E1F0EC02F1B1
:100F6400704700BFE0EC0201E0EC0211E0EC02216A
:100F7400E0EC0231E0EC0241E0EC0251E0EC026111
:100F8400E0EC0271E0EC0281E0EC0291E0EC02A101
:100F9400E0EC02B1E0EC02C1E0EC02D1E0EC02E1F1
:100FA400E0EC02F1704700BFB0FC0181B0FC01919C
:100FB400B0FC01A1B0FC01B1704700BFA0FC0181ED
:100FC400A0FC0191A0FC01A1A0FC01B1704700BFED
:100FD400EC4600B52DE900502DE9FF1F4FF000034A
:100FE4002DE90C0001A9FFF7F3FBDDF840E012B096
:100FF400704700BFEC4600B52DE900502DE9FF1FF6
:101004004FF000032DE90C0001A9FFF71BFCDDF8EC
:1010140040E012B0704700BFEC4600B52DE9005027
:101024002DE9FF1F4FF000032DE90C0001A9FFF784
:101034002BFCDDF840E012B0704700BFEC4600B571
:101044002DE900502DE9FF1F4FF000032DE90C009E
:1010540001ABFFF7EDFBDDF840E012B0704700BFD5
:10106400EC4600B52DE900502DE9FF1F4FF00003B9
:101074002DE90C0001AAFFF765FCDDF840E012B091
:10108400704700BF027A1AB9437A43B9B020704757
:101094000368013A02721A020260180E704742682D
:1010A400013B10B4437213680321141D01721A0228
:1010B400446002605DF8044B180E704700B585B0BB
:1010C40003AA0023009219460C22FFF7EDFB0398B4
:1010D40005B05DF804FB00BFF0E700BF2DE9F04365
:1010E400064685B00F464FF000083846FFF7CAFFA2
:1010F400B028044623D0050627D400230DF10C099B
:10110400194685000D22CDF800903046FFF7CCFB40
:10111400EDB2039BCDF80090600605F104054CBFC9
:101124005D1BED18002319460D2230460395FFF789
:10113400E1FB3846FFF7A6FFB0280446DBD1B8F13F
:10114400000F00F0958000201CE000F0F003802BDD
:101154005DD0902B19D0A02B2CD0B02B3FD0C02B1E
:101164006CD000F0F803D02B0BD100F00702013251
:1011740042F40022052301213046FFF789FD0028AF
:10118400B3D0092005B0BDE8F08300F00D030D2BAA
:10119400F7D003AD002300F00F0219460095304646
:1011A400FFF782FB0023009519460D223046FFF716
:1011B400A1FB9AE7C24302F007034FF47F621A418E
:1011C400010702F47F624FF0000348BF42F48042FB
:1011D40019463046FFF75CFD0028D2D185E7B128D7
:1011E40057D0B22868D0B32800F0958000F0FC03F3
:1011F400B42BC6D000F007020132012342F40022CE
:1012040019463046FFF744FD0028BAD16DE7384649
:10121400FFF738FF24020443B4F5004FB1D0240192
:101224000023A2B219463046FFF732FD0028A8D1A8
:1012340014F4004F18BF4FF0010856E7C6287DD0BC
:10124400C72800F0868000F0F803C02B00F09480DB
:10125400C82800F09F80C92893D13846FFF712FFB1
:10126400020300F00F0002F470220130024381E710
:1012740003AC43460E22414600943046FFF714FB6C
:101284000094304643460F224146FFF733FB404665
:1012940078E73846FFF7F6FE00283FF472AF10F007
:1012A400F0037FF46EAF024619463046FFF7F0FCB8
:1012B40000287FF466AF18E700230DF10C090D2216
:1012C4001946CDF800903046FFF7EEFA3846FFF79E
:1012D400D9FE02064FF002040CD5039B00F07F00F8
:1012E400A040034438460393FFF7CCFE030604F101
:1012F4000704F2D4039BCDF8009000F07F02A240D3
:1013040003F501740023144419460D223046039456
:10131400FFF7F0FAE9E63846FFF7B4FE010300F000
:101324000F0001F47021421C01230A433046194680
:10133400FFF7AEFC00287FF424AFD6E63846FFF76B
:10134400A1FE010300F00F0001F47021421C0323ED
:10135400EBE73846FFF796FE00283FF412AF10F093
:10136400F0037FF40EAF024604213046FFF790FCF1
:1013740000287FF406AFB8E600F00F020132032321
:1013840042F4202219463046FFF782FC00287FF4FD
:10139400F8AEAAE63846FFF775FE00F0F00200F05A
:1013A4000F031032013343EA0232E3E610B5C36C93
:1013B40084B05A6803208DF80C00DC798DF80D4058
:1013C40012020833084601A901920293FFF786FE30
:1013D40004B010BD08B5FFF77FFE806C08BD00BFE8
:1013E40008B5FFF779FEC06CC37900EB83000830C1
:1013F40008BD00BF08B502F0C5F800BF08B5FFF787
:10140400F9FF00BF704700BF08B50C480C4B4FF004
:10141400100E80E8084000238360C36003614361C9
:10142400037643768376C3760377437700F02AFD09
:1014340018B1BDE8084000F04FBB08BD0879002092
:101444000068004010B5044688B01422002103A8A7
:1014540002F090F82268214B9A423DD103F5E8331B
:10146400002400941A6C1E4842F080621A641A6CBC
:1014740002F080620092009A01941A6C42F00072A9
:101484001A641A6C02F000720192019A02941A6BA7
:1014940042F002021A631B6B03F002030293029BE5
:1014A4004FF440530393022304930323069303A9A5
:1014B4000923079300F0A2FF224621463F2000F0B3
:1014C40011FF3F2000F042FF40202246214600F059
:1014D40009FF402000F03AFF08B010BD006800404A
:1014E4000004024013B50B480B4B03600024009426
:1014F400019400F04FFF08B100F0EEFA00226946B3
:1015040004480094019400F058FF08B100F0E4FA94
:1015140002B010BD307900200074004010B50446BC
:1015240088B01422002103A802F024F82268124B88
:101534009A421ED103F5E233002101911A6C0F483F
:1015440042F000521A641A6C02F000520192019A9D
:1015540002911A6B42F001021A631B6B03F0010340
:101564000293029B1023039303A90323049300F023
:1015740045FF08B010BD00BF0074004000000240E9
:10158400F0B514228BB00DEB0200002101F0F2FF44
:1015940000242B4B00941A6B2A4D2B4F42F004026B
:1015A4001A631A6B02F004020092009A01941A6BF7
:1015B40042F080021A631A6B02F080020192019ACF
:1015C40002941A6B42F001021A631A6B02F00102D0
:1015D4000292029A03941A6B42F002021A631A6B83
:1015E40002F002020392039A04941A6B42F0080276
:1015F4001A631B6B03F00803224604932846202138
:10160400049B00F0D5FF4FF40053059305A90F4B3D
:10161400069338460126079400F0F0FE05A93846E3
:1016240005960694079400F0E9FE202305A92846B0
:10163400059306960794089400F0E0FE0BB0F0BD05
:10164400003802400000024000080240000021105F
:1016540080B500AF00F0EAFB00F010F8FFF790FF50
:10166400FFF7D2FEFFF73EFF00F03EFA00F04CFA1F
:1016740000F018FB00F062FBFEE7000080B5ACB0A0
:1016840000AF07F17C0334220021184601F072FFF9
:1016940007F1680300221A605A609A60DA601A61DE
:1016A40007F10C035C220021184601F063FF0023BC
:1016B400BB603E4A3D4B1B6C43F0805313643B4B71
:1016C4001B6C03F08053BB60BB6800237B60384A0B
:1016D400374B1B6823F4404343F480431360344B7B
:1016E4001B6803F440437B607B680223FB67012390
:1016F400C7F888301023C7F88C300223C7F8943019
:101704000023C7F898300823C7F89C304223C7F851
:10171400A0300223C7F8A4300423C7F8A83002235A
:10172400C7F8AC3007F17C03184601F053FA0346BE
:10173400002B14BF01230023DBB2002B01D000F0E7
:10174400CBF90F23BB660223FB6600233B674FF4F0
:1017540080537B670023BB6707F1680302211846A7
:1017640000F02CFF0346002B14BF01230023DBB23F
:10177400002B01D000F0B0F94FF44073FB6000235C
:101784003B6600233B6507F10C03184600F0D2FFCB
:101794000346002B14BF01230023DBB2002B01D02E
:1017A40000F09AF900BFB037BD4680BD0038024052
:1017B4000070004080B582B000AF786002210D480F
:1017C40000F062FC0C4B0D4A0021786800F0D5FB58
:1017D4000346002B14BF01230023DBB2002B01D0EE
:1017E40000F07AF90221034800F03DFC00BF0837FD
:1017F400BD4680BD08790020C00300209C03002062
:1018040080B582B000AF7860224B1B8801339AB256
:10181400204B1A801F4B1B88B3F57A7F0CDB1D4BC2
:101824009B780133DAB21B4B9A701A4B1B88A3F5D1
:101834007A739AB2174B1A80164B9B783B2B0BDDAD
:10184400144BDB780133DAB2124BDA70114B9B780C
:101854003C3BDAB20F4B9A700E4BDB783B2B0BDD23
:101864000C4B1B790133DAB20A4B1A71094BDB7842
:101874003C3BDAB2074BDA70074B1B78012B04D0E0
:1018840000F00CF8044B01221A7000BF0837BD4663
:1018940080BD00BFCC030020D403002090B585B0E8
:1018A40000AF3A4B1B881A4640F6A2339A4202DD37
:1018B400364B00221A800023FB73FB7B142B5EDC67
:1018C400334B1B883B81324B9B78BB72304BDB78AC
:1018D400FB722F4B1B793B73FA7B2E491346DB00BB
:1018E40013449B000B441C331C68FA7B29491346A0
:1018F400DB0013449B000B4420331A78BB1D1146B4
:101904001846A047214B1B881946234A0B469B00C7
:101914000B445B001344FA7B1A701C4B1B8819465A
:10192400F8881D4A0B469B000B445B0013440233AA
:1019340002461A80154B1B881946174A0B469B0012
:101944000B445B001344043307F108021068186069
:1019540092889A80FA7BF8880E491346DB00134478
:101964009B000B44223302461A80084B1B88013328
:101974009AB2064B1A80FB7B0133FB739DE7074B3E
:1019840000221A7000BF1437BD4690BDD203002058
:10199400CC03002000000020D8030020D403002042
:1019A40080B483B000AF78600B46FB7000BF0C3787
:1019B400BD465DF8047B704780B483B000AF7860A7
:1019C4000B46FB7000BF0C37BD465DF8047B7047C7
:1019D40080B483B000AF78600B46FB7000BF0C3757
:1019E400BD465DF8047B704780B483B000AF786077
:1019F4000B46FB7000BF0C37BD465DF8047B704797
:101A040080B483B000AF78600B46FB7000BF0C3726
:101A1400BD465DF8047B704780B483B000AF786046
:101A24000B46FB7000BF0C37BD465DF8047B704766
:101A340080B483B000AF78600B46FB7000BF0C37F6
:101A4400BD465DF8047B704780B483B000AF786016
:101A54000B46FB7000BF0C37BD465DF8047B704736
:101A640080B483B000AF78600B46FB7000BF0C37C6
:101A7400BD465DF8047B704780B483B000AF7860E6
:101A84000B46FB7000BF0C37BD465DF8047B704706
:101A940080B483B000AF78600B46FB7000BF0C3796
:101AA400BD465DF8047B704780B483B000AF7860B6
:101AB4000B46FB7000BF0C37BD465DF8047B7047D6
:101AC40080B483B000AF78600B46FB7000BF0C3766
:101AD400BD465DF8047B704780B400AF00BFBD46CF
:101AE4005DF8047B70470000054B064A1A6000222B
:101AF4005A609A60DA601A615A619A61704700BF4D
:101B040044790020002C014008B50E480E4B4FF4D8
:101B1400827E80E8084000238360C36003614361E0
:101B24004FF40072C3610362436283620A238261D9
:101B3400C36201F0E9F918B1BDE80840FFF7CCBF72
:101B440008BD00BFC879002000380040F0B5044645
:101B540089B01422002103A801F00CFD2268234B54
:101B64009A4241D103F50033002400941A6C2048B2
:101B740042F480421A641A6C02F480420092009A81
:101B840001941A6B42F004021A631A6B02F0040205
:101B94000192019A02941A6B42F002021A631B6BBF
:101BA40003F00203029302250326029B03950723F5
:101BB40003A9079305270495069600F01FFC042348
:101BC40003A90B480393049505940696079700F020
:101BD40015FC4FF4806303A9064803930495059408
:101BE4000696079700F00AFC09B0F0BD00380040E3
:101BF400000802400004024007B50E4B002100918A
:101C04005A6C42F480425A645A6C02F48042009244
:101C1400009A01911A6C42F080521A641B6C03F012
:101C2400805301930720019B00F04AFB03B05DF849
:101C340004FB00BF003802407047FEE7FEE7FEE702
:101C4400FEE770477047704700F00AB9014801F099
:101C54009CB900BF207A0020014800F033BA00BFCD
:101C640008790020FFF7F8BF0120704708B501F09C
:101C740057FC162303604FF0FF3008BD08B501F090
:101C84004FFC16230360FEE7054BD3F8882042F48B
:101C94007002C3F888204FF000629A60704700BF5A
:101CA40000ED00E07FB51022002102A801F062FCE3
:101CB400134800234FF080420093019380E80C0006
:101CC4008360C3600361836101F068FA08B1FFF7C0
:101CD40003FF4FF4805302A90948029301F082FAEA
:101CE40008B1FFF7F9FE0023694605480093019304
:101CF40001F00CFB08B1FFF7EFFE07B05DF804FB41
:101D0400207A00200368B3F1804F07B513D1002275
:101D140003F50E330192196C41F0010119641B6C37
:101D240003F0010301931C201146019B00F0DAFA31
:101D34001C2000F00BFB03B05DF804FB08B50B4856
:101D44000B4B4FF4E13E80E808400C2200238360F3
:101D5400C360036142618361C36101F089FB18B10F
:101D6400BDE80840FFF7B8BE08BD00BF607A002098
:101D74000044004010B5044688B01422002103A892
:101D840001F0F8FB2268154B9A4224D103F5FA338B
:101D9400002101911A6C124842F400321A641A6C40
:101DA40002F400320192019A02911A6B42F001028C
:101DB4001A631B6B03F001030293029B0C2303932E
:101DC40002230493012305930323069303A9072302
:101DD400079300F013FB08B010BD00BF004400409F
:101DE4000000024038B50E4A0E4B054618784FF4F1
:101DF4007A73B3FBF0F31068B0FBF3F000F0B4FABD
:101E0400044658B90F2D09D8024629464FF0FF3031
:101E140000F068FA044B20461D6038BD012038BD2F
:101E2400F4020020F8020020FC02002008B50B4B4D
:101E34001A6842F400721A601A6842F480621A60E6
:101E44001A6842F480721A60032000F039FA002004
:101E5400FFF7C8FFFFF7D0FE002008BD003C02409A
:101E6400034A044B11681B780B441360704700BF8E
:101E7400A07A0020F8020020014B1868704700BFC8
:101E8400A07A002038B5044600286ED090F820309F
:101E94000BB9FFF7D7FA2268136823F00203136023
:101EA400FFF7EAFF054623685A68910751D41A6878
:101EB40042F001021A60FFF7DFFF054623685A6803
:101EC400D20754D5227E012A1A680CBF42F0800240
:101ED40022F080021A60627E012A1A680CBF42F066
:101EE400400222F040021A60A27E012A1A680CBF46
:101EF40042F0200222F020021A60E27E012A1A68CF
:101F04000CBF22F0100242F010021A60227F012A54
:101F14001A680CBF42F0080222F008021A60627FBD
:101F2400012A1A680CBF42F0040222F004021A606B
:101F3400E168A2680A4321690A4361690A43616846
:101F440001390A43DA6100200123606284F82030F9
:101F540038BDFFF791FF401B0A28A4D9636A43F4F4
:101F640000336362052384F82030012038BDFFF775
:101F740083FF401B0A28A1D9F0E7F0B590F8204070
:101F8400013C012C6BD8066841B9F468A40707D159
:101F9400436A43F4001343620120F0BD3469F5E75A
:101FA4000C013519D5F8B07107F004079760002FBC
:101FB4004BD1D5F8B0717F0D1760D5F8B07107F02B
:101FC4000207D760D5F8B47107F00F071761D5F889
:101FD400B471D5F8B4512644C7F307272D0C976183
:101FE4005561D6F8B8211A7002682244D2F8B82193
:101FF400120A5A7002682244D2F8B821120C9A705C
:1020040002682244D2F8B821120EDA70026822441F
:10201400D2F8BC211A7102682244D2F8BC21120AF7
:102024005A7102682244D2F8BC21120C9A710268D7
:102034001444D4F8BC21120EDA71036851B9DA6879
:1020440042F02002DA600020F0BDD5F8B071FF083C
:102054005760B2E71A6942F020021A61F3E7436A53
:1020640043F4802397E790F82030013B012B05D8F7
:10207400026853691943516100207047436A43F46D
:10208400802343620120704790F82030013B012BEC
:1020940006D80268536923EA0101516100207047A0
:1020A400436A43F4802343620120704770477047BA
:1020B4007047704770477047704770477047704764
:1020C400704770472DE9F84F03685E69D3F80490B0
:1020D4009F68D3F80CB0D3F810A0D3F8188016F08A
:1020E4000104054622D017F0010407D00122B907E4
:1020F4009A6040F1A380FFF7D9FF0024FB0509D5BE
:102104002B684FF48072B8059A6040F1A580284688
:10211400FFF7CDFFFB0309D52B684FF48032B803DA
:102124009A6040F1A7802846FFF7C2FF330707D51E
:102134001BF0100F1FBF2B68102244F40074DA60E8
:10214400770708D51BF0080F05D02B680822DA6042
:102154002846FFF7B1FFB00706D52B68DB6899075F
:1021640002D02846FFF726FB720607D51AF0100F97
:102174001FBF2B68102244F480641A61B30608D58B
:102184001AF0080F05D02B6808221A612846FFF7B9
:1021940095FFF70606D52B681B69980702D02846D9
:1021A400FFF78BFFB10308D519F0100F05D02B688A
:1021B40010225A602846FFF782FFF20308D519F06F
:1021C400080F05D02B6808225A602846FFF778FFCD
:1021D40033042AD519F0040F2A6824D0F70504D54E
:1021E40018F0010F18BF44F00104B00504D518F02D
:1021F400020F18BF44F00204710504D518F0040F4F
:1022040018BF44F0040433050DD518F070030AD048
:10221400302B4CD03CD8102B43D0202B44D0936986
:1022240023F070039361042353602CB16B6A1C4345
:102234006C622846FFF745FFBDE8F88F7A0705D49E
:1022440017F0080405D1FFF734FF57E74FF4006493
:1022540054E74FF4805451E7790502D544F400540F
:1022640058E73A0502D544F4804453E72846FFF77B
:1022740021FF4FE7790302D544F4004456E73A03BB
:1022840002D544F4803451E72846FFF714FF4DE7A4
:10229400502B0FD0602B10D0402BC0D144F0400401
:1022A400BDE744F00804BAE744F01004B7E744F08B
:1022B4002004B4E744F08004B1E744F48074AEE74A
:1022C400074AD36823F4E0631B041B0C43F0BF6389
:1022D400000243F4003300F4E0600343D36070472A
:1022E40000ED00E0174B30B5DC68C4F30224C4F100
:1022F4000703251D042B28BF0423062D4FF00105D9
:1023040005FA03F303F1FF338CBF033C00241940A7
:10231400A14005FA04F4013C2240002842EA0102EB
:102324004FEA0212ADBF00F1604000F00F00064B0F
:1023340000F56140B5BFD2B2D2B21A5480F800237E
:1023440030BD00BF00ED00E014ED00E0002808DB24
:102354004209012300F01F0003FA00F0014B43F887
:102364002200704700E100E00138B0F1807F0AD21A
:10237400064B074A5860F02182F8231000200722F8
:1023840098601A6070470120704700BF10E000E0B9
:1023940000ED00E010B5044668B1037903F0FF02D4
:1023A40013B94271FFF7BAF8022323710020012305
:1023B4002061237110BD012010BD4379012B30B57C
:1023C4004FF0020317D004680371236840F6FE75CA
:1023D400954023EA05050AC90B4393402B43236028
:1023E4002368C02101FA02F223EA020201232260D7
:1023F400037100234371184630BD00002DE9F04FEE
:1024040085B00B68DFF8A081654ADFF8A0910193DD
:1024140000230124019D9C402540AC4240F0AC8047
:102424004C6824F0100C0CF1FF36012E4FEA430ED9
:1024340012D88768032606FA0EF627EA0607CE683E
:1024440006FA0EF63E4386604768C4F3001627EA90
:1024540005079E403E4346600326C76806FA0EF60B
:10246400F64307EA060A8F6807FA0EF747EA0A07EF
:10247400BCF1020FC76016D14FEAD30A00EB8A0AF7
:1024840003F0070BDAF820704FEA8B0B4FF00F0CB8
:102494000CFA0BFC27EA0C0C0F6907FA0BF747EA56
:1024A4000C07CAF8207007683E4004F0030707FAD7
:1024B4000EFE4EEA06060660E6005DD54FF0000B00
:1024C400CDF80CB0D8F84470364E47F48047C8F8BD
:1024D4004470D8F8447007F480470397039F23F0AF
:1024E400030707F1804707F59C3703F0030CD7F87F
:1024F40008A04FEA8C0C4FF00F0E0EFA0CFEB042FF
:102504002AEA0E0E3FD006F58066B0423DD006F5AD
:102514008066B0423BD006F58066B04239D006F5FD
:102524008066B04237D0484537D006F50066B042E1
:1025340014BF0726062606FA0CF646EA0E06BE6007
:102544001668EF4314F4803F0CBF3E402E431660E0
:10255400566814F4003F0CBF3E402E435660966804
:1025640014F4801F0CBF3E402E439660D668A4022C
:1025740054BF3E402E43D6600133102B7FF449AF45
:1025840005B0BDE8F08F5E46D5E70126D3E7022605
:10259400D1E70326CFE70426CDE70526CBE700BF26
:1025A400003C014000000240003802400014024098
:1025B4000AB1816170470904FBE700002DE9F0418D
:1025C4000D46044610B90120BDE8F081444B1A6859
:1025D40002F00F028A4229D321688F072ED4C8073C
:1025E40041D43F4B1A6802F00F02954267D3226828
:1025F40051076DD4130707D53A4A2169936823F428
:10260400604343EAC103936000F09CFA354B364AB9
:102614009B68C3F30313D35CD840344B1860344B2A
:102624001868FFF7DFFB0020BDE8F081CAB21A701A
:102634001B6803F00F039942C5D1CDE7294B11F074
:10264400040F1EBF9A6842F4E0529A600E0742BF1C
:102654009A6842F460429A609A68A06822F0F00294
:1026640002439A60BBE762681E4B012A1DD11B68B6
:1026740013F4003FA7D01B4EB36823F003031343A6
:10268400B360FFF7F9FB41F288380746B368626824
:1026940003F00C03B3EB820FA3D0FFF7EDFBC01BD9
:1026A4004045F3D90320BDE8F081911E01291B6840
:1026B40002D813F0007FDDE713F0020FDAE7EAB285
:1026C4001A701B6803F00F039D427FF47CAF8EE702
:1026D4000449E0688B6823F4E05303438B6089E783
:1026E400003C0240003802404C360008F40200204E
:1026F400FC020020044B054A9B68C3F38223D35C8D
:10270400034A1068D8407047003802405C3600081D
:10271400F4020020044B054A9B68C3F34233D35CA4
:10272400034A1068D8407047003802405C360008FD
:10273400F402002003682DE9F74313F00106044670
:102744000BD0AA49866BD1F88C2022F0C0623243A8
:10275400B6FA86F6C1F88C2076099D070BD5A348F6
:10276400E16BD0F88C2022F0C0520A430029C0F853
:102774008C2008BF012613F0040512D09B49256B59
:10278400D1F88C20B5F5801F22F4401242EA0502EC
:1027940018BFB5FA85F5C1F88C2012BF6D09002564
:1027A400012618070FD59148616BD0F88C2022F4CC
:1027B40040020A43B1F5800FC0F88C2000F0098173
:1027C400002908BF0125990633D500230193874BBF
:1027D400874F1A6C42F080521A641B6C03F08053CA
:1027E4000193019B3B6843F480733B60FFF744FB18
:1027F40080463B68DA0540F1EE807C4F3B6F13F472
:10280400407340F0FB80236C03F44072B2F5407FC8
:10281400764A40F01681916823F0704021F4F81153
:1028240020F4407001439160116FC3F30B030B4319
:1028340013672368D90642BF6E4B94F858201A6078
:1028440023681A0608D56949E06CD1F8942022F46B
:1028540040020243C1F894205F0608D56349A06C86
:10286400D1F8942022F080620243C1F89420D80564
:102874000CD55E48616DD0F8942022F000620A43C2
:10288400B1F1006FC0F8942008BF0125990508D55F
:102894005649606CD1F8942022F080520243C1F86A
:1028A40094205A0500F1D180012E40F0DC80524E74
:1028B4004E4F00233360FFF7DFFA80463B681B016D
:1028C40000F125812268D00701D5A36B1BB19107C4
:1028D40015D5E36B9BB94549D1F88430D1F8840010
:1028E40003F4403300F07060034360680343A0685E
:1028F40043EA8013606943EA0073C1F884305307E4
:1029040003D5236BB3F5801F05D0170720D5636B60
:10291400B3F5800F1CD13549D1F88430D1F8840047
:1029240003F4403300F0E040034360680343A068CD
:1029340043EA8013206943EA0063C1F88430D1F884
:102944008C00A36A20F01F00013B0343C1F88C30C4
:1029540050051BD5236DB3F1005F17D12348676879
:10296400D0F88410D0F8843003F0E0433B43A768E8
:10297400C1F30141013143EA871343EA4163E1684A
:102984004908013943EA0143C0F88430110511D5DF
:102994002369A2681B0643EA8213626813436269CF
:1029A40043EA0273E2685208013A43EA02430F4AD7
:1029B400C2F8843001233360FFF75EFA0B4E0746FA
:1029C40033681A0153D4FFF757FAC01B0228F7D90A
:1029D40008E00126F7E6FFF74FFAA0EB080002280B
:1029E4007FF607AF032003B0BDE8F0830038024050
:1029F40000700040E011474268004742226C02F434
:102A0400407293423FF4FFAE3B6F4B4A0121116089
:102A140023F44073002111603B673B6FDB077FF5B4
:102A2400F2AEFFF729FA41F2883980463B6F9807E6
:102A34003FF5E9AEFFF720FAA0EB08004845F5D9C9
:102A4400D0E7916821F4F811EDE63C48216DD0F807
:102A5400942022F000520A43B1F1005FC0F89420A0
:102A64007FF422AF23E7B3F5006F3FF420AF012DCD
:102A74004BD1334D314E00232B60FFF7FDF9074650
:102A840033689B004BD421684E0701D5236B1BB1DF
:102A940008071AD5636BC3B9284AA069D2F88830ED
:102AA40003F440330343E06943EA8013606A43EA72
:102AB4000063C2F88830D2F88C30E06A23F4F8530B
:102AC400013843EA0023C2F88C30CA0514D5636D7B
:102AD400B3F1006F10D11949A269D1F8883003F01D
:102AE40070631343E26943EA8213226A5208013A8B
:102AF40043EA0243C1F8883001232B60FFF7BCF995
:102B04000E4C054623689B000FD500206BE7FFF7AA
:102B1400B3F9A0EB080002287FF6D0AE62E7FFF716
:102B2400ABF9C01B0228ABD95CE7FFF7A5F9401B42
:102B34000228E7D956E700BF400E4742003802405A
:102B440070004742204908B58B6803F00C03082B3A
:102B540007D00C2B20D01D4A1D48042B18BF10464B
:102B640008BD4A684B68496813F4800314BF1848C9
:102B74001648C1F3881118BF002302F03F02A1FBDD
:102B84000001FDF73DFB104B5B68C3F301430133C8
:102B94005B00B0FBF3F008BD4A684B68496813F466
:102BA400800314BF0A480948C1F3881118BF0023E1
:102BB40002F03F02A1FB0001FDF722FB024B5B6820
:102BC400C3F30273E5E700BF003802400024F400B9
:102BD40000127A0003682DE9F341DF07044610D49C
:102BE40023689E0767D423681A0700F1B28023681C
:102BF4005B0700F1D080A269002A40F039810020EF
:102C04001EE0974B9A6802F00C02042A10D09A68CE
:102C140002F00C02082A02D15B685D0208D4904BD2
:102C24009A6802F00C020C2A0DD15A6850020AD597
:102C34008B4B1B689903D3D56368002BD0D101203B
:102C440002B0BDE8F0816268B2F5803F11D11A6824
:102C540042F480321A60FFF70FF9814D06462B6863
:102C64009A03BDD4FFF708F9801B6428F7D9032021
:102C7400E6E77B4DB2F5A02F2B6807D143F4802300
:102C84002B602B6843F480332B60E4E723F4803318
:102C94002B602B6823F480232B60002ADBD1FFF701
:102CA400EBF806462B689B039AD5FFF7E5F8801BE3
:102CB4006428F7D9DBE76A4B9A6812F00C0F10D03E
:102CC4009A6802F00C02082A02D15B685F0208D5F8
:102CD400634A936803F00C030C2B11D153685E0212
:102CE4000ED45F4B1A68950702D5E268012AA6D173
:102CF4001A68216922F0F80242EAC1021A6072E7F6
:102D0400E268584BB2B101221A60FFF7B5F8544D8E
:102D140006462B68980707D52B68226923F0F80329
:102D240043EAC2032B605EE7FFF7A6F8801B022884
:102D3400EFD99CE71A60FFF79FF8494D06462B68C8
:102D440099077FF550AFFFF797F8801B0228F6D953
:102D54008DE76269444B7AB101221A60FFF78CF85F
:102D64003F4D06466B6F9F073FF541AFFFF784F871
:102D7400801B0228F6D97AE71A60FFF77DF8384DF0
:102D840006466B6F98077FF532AFFFF775F8801B27
:102D94000228F6D96BE7324B1A6C12F0805228D114
:102DA40001921A6C42F080521A641B6C03F0805337
:102DB4000193019B01262D4D2B68D9051BD5A368D2
:102DC400274D012B27D12B6F43F001032B67FFF70E
:102DD40053F8234D074641F288382B6F9B0739D5AA
:102DE400002E3FF408AF1E4A136C23F08053136483
:102DF40001E70026DFE72B6843F480732B60FFF7BD
:102E04003BF807462B68DA05D9D4FFF735F8C01B21
:102E14000228F7D92BE7052B04D12B6F43F00403C9
:102E24002B67D0E72A6F22F001022A672A6F22F06B
:102E340004022A67002BCAD1FFF71EF841F2883832
:102E440007462B6F9807CBD5FFF716F8C01B4045F4
:102E5400F7D90CE7FFF710F8C01B4045BDD906E7CA
:102E64000038024000004742800E47420070004094
:102E7400234DAB6803F00C03082B3FF4E0AE214E66
:102E84000023022A33602DD1FEF7F6FF07462B6894
:102E9400990121D4226AE3691343626A43EA8213E3
:102EA400E26A43EA0263226B43EA0273A26A144CA5
:102EB4005208013A43EA02436B6001233360FEF790
:102EC400DBFF054623689A013FF599AEFEF7D4FF70
:102ED400401B0228F6D9CAE6FEF7CEFFC01B022823
:102EE400D5D9C4E6FEF7C8FF04462B689B017FF5DD
:102EF40086AEFEF7C1FF001B0228F6D9B7E600BF75
:102F0400003802406000474210B50446002836D01D
:102F14000023836290F8513003F0FF021BB980F85C
:102F24005020FEF713FE2168A068A269022384F8EA
:102F340051300B6823F040030B6063680343E0687F
:102F440003432069034360690343E0690343206A40
:102F54000343A06A034302F4007003430B60120CA2
:102F6400636A02F004021A434A60CB6923F40063E3
:102F7400CB6100200123606584F8513010BD01202D
:102F840010BD704770477047704703681A6991070E
:102F940010B504460ED5DA6892070BD56FF002021D
:102FA4001A619B6901229B07027777D0FFF7EAFF3A
:102FB4000023237723681A69500710D5DA6851076C
:102FC4000DD56FF004021A619B69022213F4407F4D
:102FD4002277204668D0FFF7D5FF002323772368A4
:102FE4001A6912070FD5DA6810070CD56FF00802BA
:102FF4001A61DB6904229907227720465AD0FFF729
:10300400C1FF0023237723681A69D20610D5DA6832
:10301400D0060DD56FF010021A61DB69082213F493
:10302400407F227720464BD0FFF7ACFF0023237765
:1030340023681A69D10708D5DA68D20705D56FF075
:1030440001021A612046FEF7DBFB23681A691006A9
:1030540008D5DA68110605D56FF080021A6120469A
:1030640000F097F923681A69520608D5DA68500601
:1030740005D56FF040021A612046FFF785FF2368EB
:103084001A69910622D5DA6892061FD56FF02002DC
:1030940020461A61BDE8104000F07AB9FFF771FFCD
:1030A4002046FFF770FF83E7FFF76BFF2046FFF72B
:1030B4006AFF92E7FFF765FF2046FFF764FFA0E78A
:1030C400FFF75FFF2046FFF75EFFAFE710BD00008C
:1030D400304A0368904212D0B0F1804F0FD0A2F56D
:1030E4007C4290420BD002F58062904207D002F5F8
:1030F4008062904203D002F57842904219D14A6826
:1031040023F070031343234A904229D0B0F1804F37
:1031140026D0A2F57C42904222D002F580629042F1
:103124001ED002F5806290421AD002F57842904295
:1031340016D0194A904213D002F5806290420FD003
:1031440002F5806290420BD0A2F59832904207D0EB
:1031540002F58062904203D002F58062904203D16E
:10316400CA6823F4407313434A6923F0800313436A
:1031740003608B68C3620B688362064B984203D07A
:1031840003F58063984201D10B6903630123436112
:10319400704700BF000001400040014010B50446E4
:1031A400A0B190F83D3003F0FF021BB980F83C2039
:1031B400FEF7A8FD022384F83D302068211DFFF7A7
:1031C40087FF012384F83D30002010BD012010BD8D
:1031D40010B584680A4324F47F4442EA032323435A
:1031E400836010BD90F83C30012B70B504464FF05D
:1031F400020019D084F83D002068012384F83C3093
:10320400836823F47F4323F0770383600B68402BA8
:1032140065D015D8102B0CD007D853B1012300204A
:1032240084F83D3084F83C0070BD202B01D0302B55
:10323400F4D1826843F0070322F0700213431AE0CA
:10324400602B34D019D8502BE8D14A68CE68016A73
:10325400056A25F001050562836921F00A0123F05E
:10326400F00343EA06130A4383610262836823F08E
:10327400700343F057038360D0E7702B0CD0B3F591
:10328400005FCBD1CB684A688968FFF7A1FF226849
:10329400936843F4804308E0CB684A688968FFF781
:1032A40097FF2268936843F077039360B6E74D680D
:1032B400CE68016A21F0100101628269036A22F476
:1032C400704223F0A00343EA051342EA0632826106
:1032D4000362836823F0700343F06703CBE74A6813
:1032E400CE68016A056A25F001050562836921F04B
:1032F4000A0123F0F00343EA06130A4383610262DE
:10330400836823F0700343F04703B4E790F83C303C
:10331400012B30B54FF0020335D080F83D300368FF
:103324000D685C6824F0700401222C4380F83C2072
:103334009A685C60154CA3421AD0B3F1804F17D041
:10334400A4F57C44A34213D004F58064A3420FD0B7
:1033540004F58064A3420BD004F57844A34207D05B
:1033640004F57054A34203D0A4F59434A34204D1C9
:10337400496822F080020A439A60012380F83D30B4
:10338400002380F83C30184630BD00BF00000140E7
:103394007047704738B50368C1681A69044622F457
:1033A40040520A431A612569A268D968C0692A4350
:1033B400656921F416412A4321F00C0102430A43B2
:1033C400DA605A69A16922F440720A43B0F5004FE9
:1033D4005A61254A29D1934203D002F5806293426F
:1033E40020D1FFF797F96268256892184FF000031F
:1033F4004FF019015B41A0FB0101FCF701FF6421BF
:10340400B0FBF1F401FB1403DB003233B3FBF1F343
:1034140003F007025B0002EB041203F4F873134495
:10342400AB6038BDFFF766F9DDE7934202D00F4A7F
:10343400934216D1FFF76EF96368256819219A0043
:10344400A0FB01019B0FFCF7DBFE6422B0FBF2F151
:1034540002FB11031B013233B3FBF2F303EB011341
:10346400DEE7FFF747F9E7E70010014000140140E9
:1034740010B5044640B390F8393003F0FF021BB98D
:1034840080F83820FEF776FC2268242384F839304B
:10349400D36823F40053D3602046FFF77BFF2368EF
:1034A4001A6922F490421A615A6922F02A025A6176
:1034B400DA6842F40052DA6000202023E06384F8E2
:1034C400393084F83A3010BD012010BDDFF834D013
:1034D400002103E00C4B5B58435004310B480C4B68
:1034E40042189A42F6D30B4A02E0002342F8043B06
:1034F400094B9A42F9D3FEF7C7FB00F017F8FEF721
:10350400A7F87047000002209C3700080000002044
:103514006403002064030020A87A0020FEE7000072
:10352400014B1868704700BF0003002070B50D4EB2
:103534000D4CA41BA4100025A54209D10B4E0C4C24
:1035440000F076F8A41BA4100025A54205D170BD97
:1035540056F8253098470135EEE756F82530984758
:103564000135F2E7943700089437000894370008CF
:103574009837000802440346934200D1704703F889
:10358400011BF9E708B5062000F036F80120FEF724
:1035940075FB10B5431E0A44914200D110BD11F8C9
:1035A400014B03F8014FF7E71F2938B504460D46D0
:1035B40004D9162303604FF0FF3038BD426C12B1BA
:1035C40052F821304BB9204600F030F82A46014623
:1035D4002046BDE8384000F017B8012B0AD0591C2A
:1035E40003D116230360012038BD002442F825408E
:1035F40028469847002038BD024B01461868FFF75B
:10360400D3BF00BF0003002038B5074C0023054694
:10361400084611462360FEF729FB431C02D12368A8
:1036240003B12B6038BD00BFA47A0020FEF71CBB99
:10363400F8B500BFF8BC08BC9E467047F8B500BF9B
:08364400F8BC08BC9E4670476B
:10364C000000000000000000010203040607080946
:08365C0000000000010203045C
:103664002B970181B0B0088400000000019701810C
:10367400B0B008840000000001970181B0B0088454
:103684000000000004970181B0B00984000000002C
:1036940008B10181B0B000840000000008B10181CC
:0836A400B0B00084000000003A
:1036AC0088CBFF7F01000000F8CEFF7FB0A902801D
:1036BC0090CFFF7FB0B0A880E0CFFF7F010000006B
:1036CC00ECCFFF7FB0B0AA8024D0FF7FAE71B28068
:1036DC00F4D0FF7F01000000F0D0FF7FAB3F3880BB
:1036EC0048D1FF7F0100000054D1FF7FB0B0AA8009
:1036FC0090D1FF7F0100000044D2FF7FAB0EB2805F
:10370C00ACD2FF7FB0AF0A8074D5FF7F0100000000
:10371C0078D5FF7FAB3F0480B8D7FF7F0100000056
:10372C0094D9FF7F00840480A8D9FF7F010000009A
:10373C00A4D9FF7FB0AD04806CDCFF7FB0A8038000
:10374C008CDCFF7F44FFFF7F90DCFF7F48FFFF7F17
:10375C009CDCFF7F01000000F0DEFF7F0884978077
:10376C0014DFFF7FF4FEFF7F44E0FF7FF8FEFF7F56
:10377C0088E0FF7FFCFEFF7F1CE1FF7F00FFFF7FE7
:08378C0018E2FF7F01000000BC
:04379400E90100083F
:04379800C50100085F
:10379C00004163632058000000000000000000009E
:1037AC00000000000000000000000000A519000847
:1037BC00000000000141636320590000000000007C
:1037CC0000000000000000000000000000000000ED
:1037DC00A519000801000000024769726F73636F3E
:1037EC0070696F0000000000000000000000000085
:1037FC0000000000D519000800000000035246200C
:10380C004153000000000000000000000000000018
:10381C000000000000000000BD19000800000000BE
:10382C00045246204144000000000000000000004B
:10383C00000000000000000000000000BD1900089E
:10384C00010000000552462050530000000000000B
:10385C00000000000000000000000000000000005C
:10386C00BD1900080200000006524620504400001A
:10387C00000000000000000000000000000000003C
:10388C0000000000BD1900080300000007534D4F55
:10389C0054000000000000000000000000000000C8
:1038AC000000000000000000ED19000800000000FE
:1038BC0008562042617474310000000000000000C2
:1038CC00000000000000000000000000051A0008C5
:1038DC0000000000095620426174743200000000A0
:1038EC0000000000000000000000000000000000CC
:1038FC00051A0008010000000A5620426174743356
:10390C0000000000000000000000000000000000AB
:10391C0000000000051A0008020000000B41505086
:10392C005331000000000000000000000000000007
:10393C0000000000000000001D1A0008000000003C
:10394C000C415050533200000000000000000000F9
:10395C000000000000000000000000001D1A00081C
:10396C00010000000D545053310000000000000015
:10397C00000000000000000000000000000000003B
:10398C00351A0008000000000E545053320000009D
:10399C00000000000000000000000000000000001B
:1039AC0000000000351A0008010000000F444143DC
:1039BC0000000000000000000000000000000000FB
:1039CC0000000000000000004D1A0008000000007C
:1039DC00104672697A696F6E650000000000000085
:1039EC00000000000000000000000000651A000844
:1039FC00000000001154656D704F6C696F00000081
:103A0C0000000000000000000000000000000000AA
:103A1C00AD1A0008000000001254656D704163710E
:103A2C0075610000000000000000000000000000B4
:103A3C0000000000951A0008000000001354656D8A
:103A4C00704172696100000000000000000000007D
:103A5C000000000000000000C51A00080000000073
:103A6C001447656172496E7300000000000000008D
:103A7C000000000000000000000000007D1A00089B
:103A8C00000000000024F400010000001000000001
:103A9C0004030020000000000000000000000000F3
:103AAC00000000000000000000000000000000000A
:103ABC0000000000000000000000000000000000FA
:103ACC0000000000000000000000000000000000EA
:103ADC0000000000000000000000000000000000DA
:103AEC0000000000000000000000000000000000CA
:043AFC0000000000C6
:04000005080034D1EA
:00000001FF
