:020000040800F2
:100000000040002051240008A9230008AB23000869
:10001000AD230008AF230008B12300080000000052
:10002000000000000000000000000000B3230008F2
:10003000B523000800000000B7230008B92300081A
:10004000A1240008A1240008A1240008A12400087C
:10005000A1240008A1240008BD230008A124000851
:10006000A1240008A1240008A1240008A12400085C
:10007000A1240008A1240008A1240008A12400084C
:10008000A1240008A1240008A1240008A12400083C
:10009000A1240008A1240008A1240008A12400082C
:1000A000A1240008C5230008A1240008A1240008F9
:1000B000CD1E00080000000000000000A124000880
:1000C000A1240008A1240008A124000800000000C9
:1000D000D1230008A1240008DD230008A124000882
:1000E000A1240008A1240008A124000800000000A9
:1000F0000000000000000000000000000000000000
:10010000000000000000000000000000A124000822
:100110000000000000000000A12400080000000012
:1001200000000000000000000000000000000000CF
:1001300000000000000000000000000000000000BF
:10014000A1240008A1240008000000000000000015
:10015000000000000000000000000000000000009F
:10016000A1240008A1240008A1240008A12400085B
:10017000A1240008000000000000000000000000B2
:0801800000000000A1240008AA
:1001880010B5054C237833B9044B13B10448AFF3C9
:1001980000800123237010BD0C0000200000000027
:1001A800FC24000808B5034B1BB103490348AFF30F
:1001B800008008BD0000000010000020FC2400089A
:1001C80038B50E4A0E4B054618784FF47A73B3FBD0
:1001D800F0F31068B0FBF3F000F00EFB044658B9DA
:1001E8000F2D09D8024629464FF0FF3000F0C4FA17
:1001F800044B20461D6038BD012038BD0800002092
:100208000000002004000020074A08B5136843F0E6
:1002180010031360032000F09DFA0020FFF7D0FFC1
:1002280001F0DAFF002008BD00200240034A044B19
:1002380011681B780B441360704700BF380000201A
:1002480000000020014B1868704700BF38000020EC
:1002580038B503680446986800F00300012801D007
:10026800002038BD1A68D207FAD59A6802F00D0244
:10027800012A1BD19A6842F002029A6003221A608E
:10028800FFF7E0FF054623689B68DB07E8D5FFF723
:10029800D9FF401B0228F6D9636C43F0100363644E
:1002A800A36C43F00103A364012038BD636C43F0E1
:1002B80010036364A36C43F00103A36438BD00001A
:1002C80073B5002301930446002800F0CC80426CEB
:1002D800D20600F1B580436C002B7BD00020236848
:1002E8009A68D50002D59B6899000AD5636C23F0FB
:1002F800120343F010036364A36C43F00103A36487
:100308000120636CDA0600F1A880002840F0A5807F
:100318002268916811F0040140F09F80636C23F417
:10032800817343F002036364936803F00303012BB2
:1003380040F09B801368DB0740F19780A36BA668A9
:10034800E569012BE36843EA060318BF4FF48051BF
:1003580043EA45330B43616A012907D1002D71D166
:10036800A16A013943EA414343F48033E16A012930
:100378001EBF256B29430B43916811F00C0F0BD15D
:10038800D168A56921F4804121F00201D160616B37
:10039800490041EA85310B43D568384929400B4368
:1003A800D3602369012B05BF116B236A136B03F11B
:1003B800FF3306BF21F00F010B4323F00F03136334
:1003C8000023A364636C23F0030343F00103636415
:1003D80002B070BD83640365C36480F8403001F0E7
:1003E80013FF23689B68DB003FF578AF2046FFF7D3
:1003F8002FFF626CD6063FF572AF00287FF46FAF0F
:10040800636C23F4885323F0020343F0020363640C
:1004180023689A6822F040529A609A6842F08052A3
:100428009A60174B174A1B68B3FBF2F20A2353432F
:100438000193019B002B3FF451AF019B013BF7E770
:1004480018465EE7616C21F0220141F020016164E9
:10045800A16C41F00101A16488E7636C23F01203E9
:1004680043F0100363640120B2E7074D6668AB6888
:1004780023F440333343AB6060E700BF07C0F0FFAD
:100488000800002040420F0000030050F7B5002389
:10049800019390F84030012B054600F039812B6814
:1004A800CE689A680120540785F8400000F12B8136
:1004B80048680C6804284FF0060231D842431F6B85
:1004C8001F20904027EA000004FA02F202431A6350
:1004D8009A6812F00C0F62D1092C4FEA44028F6817
:1004E80046D9224498691E3A4FF0070E0EFA02FECA
:1004F80020EA0E0007FA02F202439A61DA68C2F3B0
:10050800C10E4A694FEA4E0E02FA0EFE0A69013A16
:100518004FEA846C032A73D8DFE802F037515C672E
:1005280009280BD842435F6B1E3A1F20904027EAE8
:10053800000004FA02F202435A63C9E70E280BD8F6
:1005480042439F6B3C3A1F20904027EA000004FA80
:1005580002F202439A63BBE74243DF6B5A3A1F2019
:10056800904027EA000004FA02F20243DA63AFE798
:10057800586922444FF0070E0EFA02FE20EA0E00D8
:1005880007FA02F202435A61B8E71A6E6D4F174034
:1005980047EA0C0242F0004242EA0E021A669A68E2
:1005A80002F00302012A40F0B5801A68D00740F132
:1005B800B1800020002385F8403003B0F0BD5A6EAA
:1005C800604F174047EA0C0242F0004242EA0E022E
:1005D8005A66E4E79A6E5B48104040EA0C0242F023
:1005E800004242EA0E029A66D9E7D86E554A02409E
:1005F80042EA0C0242F0004242EA0E02DA66CEE714
:100608001A6E02F0F842624502BF1A6E22F00042EA
:100618001A665A6E02F0F842944502BF5A6E22F0EA
:1006280000425A669A6E02F0F842944502BF9A6EEA
:1006380022F000429A66DA6E02F0F8429445AED192
:10064800DA6E22F00042D9E7D3F8B0200121A140A8
:1006580022EA0102C3F8B020102C31D13A4A92683C
:1006680012F4000FA5D1986800F00300012802D108
:100678001A68D20747D4102C31D1B3F1A04F98D1C2
:10068800314A936843F400039360304B304A1B6847
:10069800B3FBF2F20A2353430193019B002B88D04A
:1006A800019B013BF8E7601C596900EB40000722F9
:1006B800824021EA020106FA00F20A435A61CBE7B6
:1006C800112C04D1204A926812F0807FCAE7122CBC
:1006D8007FF46FAF1C4A926812F4800FC2E7112CA6
:1006E80009D1B3F1A04F7FF464AF174A936843F080
:1006F800807393605DE7122C7FF45BAF124A9368B6
:1007080043F48003F5E76B6C43F020036B6451E717
:10071800022052E7012E97D1D3F8B020A640164305
:10072800092CC3F8B0608E68BDD904EB44029969FE
:100738001B3A0720904021EA000106FA02F20A4318
:100748009A6189E700F0FF83000300500800002049
:1007580040420F00074AD36823F4E0631B041B0CD4
:1007680043F0BF63000243F4003300F4E060034346
:10077800D360704700ED00E0174B30B5DC68C4F378
:100788000224C4F10703251D042B28BF0423062DCA
:100798004FF0010505FA03F303F1FF338CBF033C67
:1007A80000241940A14005FA04F4013C2240002825
:1007B80042EA01024FEA0212AFBF00F1604000F0C6
:1007C8000F00064BD2B2A5BF00F56140D2B21A5451
:1007D80080F8002330BD00BF00ED00E014ED00E01C
:1007E8004209012300F01F0003FA00F0014B43F80F
:1007F8002200704700E100E00138B0F1807F0AD2A2
:10080800064B074A5860F02182F82310002007227F
:1008180098601A6070470120704700BF10E000E040
:1008280000ED00E090F82120022A10B503D0042240
:100838008263012010BD0268C46B1168436B21F00C
:100848000E011160116821F001011160026C012193
:1008580001FA02F26260002480F8211080F820403A
:1008680013B19847204610BD184610BD2DE9F04F2A
:1008780085B00B68DFF86481564A01934FF00F0981
:100888000023019CDC4002D105B0BDE8F08F0124B3
:1008980004FA03FA019C14EA0A0500F093804C68F4
:1008A80024F0100BBBF1020F11D1DF0800EB870712
:1008B80003F0070E3E6A4FEA8E0E09FA0EFC26EA8E
:1008C8000C0C0E6906FA0EF646EA0C063E624FEA72
:1008D800430C0327066807FA0CF7FF4304F0030EDE
:1008E8003E400EFA0CFE0BF1FF3B4EEA0606BBF14A
:1008F800010F066011D8866806EA070BCE6806FA6B
:100908000CFE4EEA0B068660466826EA0A0AC4F31D
:1009180000169E4046EA0A064660C66837408E685A
:1009280006FA0CF63743E600C7604BD5D8F81860CE
:1009380046F00106C8F81860D8F8186023F00307D5
:1009480007F1804706F0010607F58037039603F0A4
:10095800030E039EBE684FEA8E0E09FA0EFCB0F134
:10096800904F26EA0C0C2FD01B4EB0422ED006F525
:100978008066B0422CD006F58066B04214BF0526CA
:10098800032606FA0EF646EA0C06BE601668EF4322
:1009980014F4803F0CBF3E402E431660566814F492
:1009A800003F0CBF3E402E435660966814F4801FEB
:1009B8000CBF3E402E439660D668A40254BF3E400A
:1009C8002E43D66001335CE70026DAE70126D8E734
:1009D8000226D6E700040140000400480010024047
:1009E8000369194214BF0120002070470AB18161D0
:1009F8007047816270474369594041617047704749
:100A080008B5044B5969014202D05861FFF7F7FF56
:100A180008BD00BF000401402DE9F347054618B999
:100A2800012002B0BDE8F0870368DA0711D42B680B
:100A38009B0700F185802B681C0700F1F6802B6866
:100A4800580700F13F81EA69002A40F0D68100206A
:100A5800E7E7BA4C636803F00C03042B07D063681C
:100A680003F00C03082B16D16368DF0313D54FF48A
:100A7800003393FAA3F2216893FAA3F3B3FA83F34A
:100A880003F01F03012202FA03F30B42CFD06B6875
:100A9800002BCCD1C4E76A68B2F5803F25D1236822
:100AA80043F480332360E36AA96823F00F030B4300
:100AB800E36252B3FFF7C6FB4FF4003680460127C6
:100AC80096FAA6F3226896FAA6F3B3FA83F303F02C
:100AD8001F0307FA03F31342A9D1FFF7B3FBA0EBF7
:100AE80008006428ECD903209BE7236832B923F473
:100AF80080332360236823F48023D3E7B2F5A02F43
:100B0800F5D143F480232360C9E7FFF79BFB4FF43B
:100B180000368046012796FAA6F3226896FAA6F3CD
:100B2800B3FA83F303F01F0307FA03F313423FF406
:100B38007EAFFFF787FBA0EB08006428EBD9D2E76C
:100B48007E4C636813F00C0F07D0636803F00C0346
:100B5800082B22D16368DE031FD4022393FAA3F281
:100B6800216893FAA3F3B3FA83F303F01F03012276
:100B780002FA03F30B4203D02B6993427FF450AF80
:100B88002168F82393FAA3F3B3FA83F26B699340CD
:100B980021F0F802134323604DE72A6901260AB3BE
:100BA80096FAA6F3B3FA83F303F1845303F5841397
:100BB8009B0002271E60FFF745FB804697FAA7F3C4
:100BC800226897FAA7F3B3FA83F303F01F0306FA30
:100BD80003F31342D4D1FFF735FBA0EB080002283A
:100BE800ECD980E796FAA6F3B3FA83F303F18453BA
:100BF80003F584139B0002271A60FFF723FB804646
:100C080097FAA7F3226897FAA7F3B3FA83F303F0E6
:100C18001F0306FA03F313423FF40DAFFFF712FB6D
:100C2800A0EB08000228EBD95DE7AA69434E4449C6
:100C380001241AB394FAA4F3B3FA83F30B449B0088
:100C480002271C60FFF7FEFA804697FAA7F397FA87
:100C5800A7F397FAA7F3726A97FAA7F3B3FA83F39D
:100C680003F01F0304FA03F313427FF4E8AEFFF71F
:100C7800E9FAA0EB08000228E7D934E794FAA4F3CC
:100C8800B3FA83F30B449B0002271A60FFF7DAFAE2
:100C9800804697FAA7F397FAA7F397FAA7F3726A29
:100CA80097FAA7F3B3FA83F303F01F0304FA03F3E5
:100CB80013423FF4C4AEFFF7C5FAA0EB08000228C0
:100CC800E7D910E71D4CE369D90034D4E36943F050
:100CD8008053E361E36903F080530193019B01268C
:100CE800184F3B68DA052FD5EB68012B3DD1236AF5
:100CF80043F001032362FFF7A5FA02278246B946AB
:100D08004FF0010897FAA7F397FAA7F3002B6CD0D6
:100D1800226A99FAA9F3B3FA83F303F01F0308FAD6
:100D280003F3134258D0002E3FF48DAEE36923F04D
:100D38008053E36187E60026D2E700BF0010024037
:100D480020819010007000403B6843F480733B6042
:100D5800FFF778FA80463B68DB05C5D4FFF772FADF
:100D6800A0EB08006428F6D9BDE63BBB236A23F054
:100D780001032362236A23F004032362FFF762FA64
:100D880002278246B9464FF0010897FAA7F397FA67
:100D9800A7F373B3226A99FAA9F3B3FA83F303F0BA
:100DA8001F0308FA03F31342BDD0FFF74BFA41F2D1
:100DB8008833A0EB0A009842E7D994E6052B236A0A
:100DC80003D143F00403236291E723F00103236274
:100DD800236A23F004038DE7FFF734FA41F28833DE
:100DE800A0EB0A0098428DD97DE697FAA7F3626ACC
:100DF8008FE797FAA7F3626ACDE7414C636803F07F
:100E08000C03082B3FF40CAE022A4FF0807352D12A
:100E180093FAA3F3B3FA83F303F1845303F584132A
:100E28009B0000221A60FFF70DFA4FF0007780460A
:100E3800012697FAA7F3226897FAA7F3B3FA83F380
:100E480003F01F0306FA03F313422DD162686B6A9D
:100E5800296A22F474120B43134363604FF08073C2
:100E680093FAA3F3B3FA83F303F1845303F58413DA
:100E78009B004FF000751E60FFF7E4F90126074656
:100E880095FAA5F3226895FAA5F3B3FA83F303F06C
:100E98001F0306FA03F313427FF4D9ADFFF7D2F923
:100EA800C01B0228ECD91EE6FFF7CCF9A0EB08001E
:100EB8000228BED917E693FAA3F3B3FA83F303F132
:100EC800845303F584139B0000221A60FFF7BAF9D4
:100ED8004FF000750746012695FAA5F3226895FAA2
:100EE800A5F3B3FA83F303F01F0306FA03F31342DF
:100EF8003FF4ADADFFF7A6F9C01B0228ECD9F2E527
:100F08000010024010B5134C616801F00C03082B67
:100F18001ED14FF4701393FAA3F301F47012B3FACD
:100F280083F322FA03F30C4AD05CE36A0F2292FAA5
:100F3800A2F2B2FA82F203F00F03D340074AD25C5E
:100F4800CB034ABF064B074BB3FBF2F3584310BD24
:100F5800034810BD0010024014250008242500088D
:100F680000127A0000093D002DE9F0410D460446C3
:100F780010B90120BDE8F0814C4A136803F007035B
:100F88008B422ED32268910736D4D2073CD4474AE5
:100F9800136803F007039D4275D32268444D12F08D
:100FA800040F7CD1130706D56B68226923F46053BC
:100FB80043EAC2036B60FFF7A5FF6B68F02292FA61
:100FC800A2F2B2FA82F203F0F003D340394AD35CBA
:100FD800D840394B18600020FFF7F2F80020BDE830
:100FE800F081136823F007030B431360136803F0C1
:100FF80007039942BDD1C5E72D49A0684B6823F086
:10100800F00303434B60C0E76268294E012A27D1E9
:101018004FF4003393FAA3F1316893FAA3F3B3FAC8
:1010280083F303F01F0302FA03F30B42A1D07368A2
:1010380023F003031A437260FFF704F941F288387A
:1010480007467368626803F00C03B3EB820F9ED007
:10105800FFF7F8F8C01B4045F3D90320BDE8F0813D
:10106800022A0CBF4FF00073022393FAA3F13068F1
:1010780093FAA3F3B3FA83F303F01F03012101FAF0
:1010880003F30342D2E7136823F007032B431360EB
:10109800136803F007039D427FF46BAF7DE76B682D
:1010A800E16823F4E0630B436B607BE700200240B8
:1010B800001002404925000808000020084B4FF4A2
:1010C800E0625B6892FAA2F2B2FA82F203F4E06399
:1010D800D340044AD35C044A1068D840704700BF24
:1010E800001002405925000808000020084B4FF462
:1010F80060525B6892FAA2F2B2FA82F203F4605389
:10110800D340044AD35C044A1068D840704700BFF3
:1011180000100240592500080800002003682DE946
:10112800F347DD03044622D5724DEB69D80000F180
:101138008580EB6943F08053EB61EB6903F08053E2
:101148000193019B01266C4F3B68D90578D52B6A22
:1011580013F4407340F089802B6A626823F440736B
:1011680013432B621EB1EB6923F08053EB612068B7
:10117800C50706D55F4AA168136B23F003030B4329
:101188001363810606D55B4AE168136B23F01003ED
:101198000B431363820306D5564A216B536823F425
:1011A80080030B435360430606D5524A2169136BEB
:1011B80023F020030B431363070406D54D4A6169E6
:1011C800136B23F040030B431363860506D5494A86
:1011D800E169536823F400030B435360050606D501
:1011E800444AA169D36A23F4F8730B43D362C10458
:1011F80006D5404A216A136B23F480730B431363AB
:10120800420306D53B4A616A136B23F480630B43A0
:101218001363030306D5374AA16A136B23F40063EB
:101228000B43136310F480101CD0324AE16A136B2D
:1012380023F400530B431363002013E0002682E7D6
:101248003B6843F480733B60FEF7FCFF80463B68D5
:10125800DA053FF57CAFFEF7F5FFA0EB0800642840
:10126800F5D9032002B0BDE8F087626802F4407245
:1012780093423FF471AF296A4FF4803321F44070F0
:1012880093FAA3F2DFF874E0B2FA82F272449200A1
:101298000127176093FAA3F3B3FA83F373449B000F
:1012A80000221A60CB0728627FF556AFFEF7CAFF07
:1012B8004FF002088246C14698FAA8F398FAA8F3B4
:1012C800A3B12A6A99FAA9F3B3FA83F303F01F03C7
:1012D80007FA03F313427FF43FAFFEF7B3FF41F27F
:1012E8008833A0EB0A009842E6D9BAE798FAA8F33F
:1012F8006A6AE7E700100240007000400081901021
:1013080070B5044600284ED00023836290F85D3003
:1013180003F0FF021BB980F85C2000F0A3FF022352
:10132800216884F85D300B68E26823F04003B2F569
:10133800E06F0B604FF0000332D91846B2F5706FBA
:1013480018BFA362236B2BB9B2F5E06F8CBF0223E1
:1013580001232363A6686368A56933432669334379
:1013680066693343E6693343266A3343A66A3343DF
:1013780005F4007633430B60636A1A43636B2D0CE4
:101388001A4305F004052A4302434A60CB6923F453
:101398000063CB6100200123206684F85D3070BDB6
:1013A8004FF48050CCE7012070BD7047036830B51A
:1013B80059689A6802F04105012D85B0044605D1A7
:1013C8004D0603D5C36C984705B030BD950704D5C5
:1013D800080602D5236D2046F5E712F4B07FF3D056
:1013E8008D06F1D550060FD594F85D0003284FF00F
:1013F800000541D0206E40F0040020660095D868B2
:10140800009098680090009895060CD5206E40F0E2
:10141800010020660020029098680290186820F069
:10142800400018600298D00508D5226E42F00802E4
:101438002266002203929A680392039A226E002A77
:10144800C2D05A6822F0E0025A60012284F85D2076
:101458008A0718D05A68A06D22F003025A6018B1A2
:101468000B4B4363FFF7DEF9606D0028ACD0084BE7
:101478004363FFF7D7F9A7E70195DA6801929B68FC
:101488000193019BA0E72046FFF78FFF9CE700BF71
:101498009D14000808B5406A0023A0F84630C387A9
:1014A800FFF783FF08BD0368DA6842F00102DA60DB
:1014B8001A6842F001021A600020704770477047AE
:1014C80070477047704703681A69910710B504465A
:1014D8000FD5DA6892070CD56FF002021A619B6982
:1014E80001229907027700F08580FFF7E9FF0023C2
:1014F800237723681A69520710D5DA6850070DD583
:101508006FF004021A619B69022213F4407F22776C
:10151800204675D0FFF7D4FF0023237723681A6984
:1015280011070FD5DA6812070CD56FF008021A6197
:10153800DB6904229B072277204667D0FFF7C0FFAC
:101548000023237723681A69D00610D5DA68D106F4
:101558000DD56FF010021A61DB69082213F4407F81
:101568002277204658D0FFF7ABFF00232377236864
:101578001A69D20708D5DA68D00705D56FF00102D5
:101588001A612046FFF79AFF23681A69110608D5E1
:10159800DA68120605D56FF080021A61204600F05D
:1015A80082F923681A69D00508D5DA68110605D5C5
:1015B8006FF480721A61204600F076F923681A6980
:1015C800520608D5DA68500605D56FF040021A6150
:1015D8002046FFF777FF23681A69910622D5DA6853
:1015E80092061FD56FF0200220461A61BDE8104010
:1015F80000F058B9FFF763FF2046FFF762FF76E770
:10160800FFF75DFF2046FFF75CFF85E7FFF757FF11
:101618002046FFF756FF93E7FFF751FF2046FFF7F5
:1016280050FFA2E710BD00001E4A0368904210B5A3
:1016380002D0B0F1804F09D14C6823F0700390427A
:1016480043EA04030DD0B0F1804F0AD0164A904205
:1016580007D002F58062904203D002F58062904282
:1016680003D1CA6823F4407313434A6923F0800303
:10167800134303608B68C3620B688362094B98420B
:101688000BD003F5A053984207D003F58063984226
:1016980003D003F58063984201D10B6903630123EA
:1016A800436110BD002C01400040014010B50446C4
:1016B800A0B190F83D3003F0FF021BB980F83C2040
:1016C80000F020FE022384F83D302068211DFFF73A
:1016D800ABFF012384F83D30002010BD012010BD70
:1016E80010B584680A4324F47F4442EA0323234361
:1016F800836010BD90F83C30012B70B504464FF064
:1017080002001AD084F83D002068012384F83C3098
:101718008268524B134083600B68402B75D018D8F1
:10172800102B00F08F8009D8002B00F08580012352
:10173800002084F83D3084F83C0070BD202B00F078
:101748008780302BF3D1836823F0700343F037038D
:1017580033E0702B33D01BD8502B3FD0602BE6D111
:101768004D68CE68016A21F0100101628269036A3E
:1017780022F4704223F0A00343EA051342EA06323A
:1017880082610362836823F0700343F0670314E007
:10179800B3F5805F0CD0B3F5005FC8D1CB684A6859
:1017A8008968FFF79DFF2268936843F4804313E03C
:1017B800836823F4803323F007038360B7E7CB689B
:1017C8004A688968FFF78CFF2268936823F480339E
:1017D80023F0770343F077039360A8E74A68CE685D
:1017E800016A056A25F001050562836921F00A018D
:1017F80023F0F00343EA06130A4383610262836815
:1018080023F0700343F05703D7E74A68CE68016AAC
:10181800056A25F001050562836921F00A0123F0B4
:10182800F00343EA06130A4383610262836823F0E4
:10183800700343F04703C0E7836823F0700343F065
:101848000703BAE7836823F0700343F01703B4E78C
:10185800836823F0700343F02703AEE78800FEFF98
:1018680090F83C30012B30B518D002680C4D536805
:101878009468AA4202BF4D6823F470032B430D6895
:10188800896823F070032B4324F0800453602143BC
:101898000023916080F83C30184630BD022030BDEE
:1018A800002C014070477047704703681A6822F49B
:1018B80090721A609A6822F001029A60202380F8D8
:1018C8006A30704770477047704708B5406A002310
:1018D800A0F85A30A0F85230FFF7F6FF08BD000014
:1018E80038B5044605682169A368C26928680B43AE
:1018F80061690B434949134301400B432B606B68F3
:10190800E168206A23F440530B436B60A968A3691C
:1019180021F4306103430B43AB60414B9D4212D12C
:1019280003F558433F491B6B03F00303B2F5004F1F
:10193800CB5C3BD1082B36D8DFE803F00F212435E8
:101948002D3535353000384B9D4203D003F5806383
:101958009D425ED1B2F5004F31D1FFF7AFFB616810
:101968004A0802EB4003B3FBF1F39BB2002023F0DB
:101978000F022168C3F342031343CB6038BDFFF75E
:10198800B5FBECE76068430803F5740303F51053EF
:10199800B3FBF0F3E9E7FFF7B5FAE0E7606843085F
:1019A80003F58033F4E701200023E0E7082B33D860
:1019B800DFE803F005101B32273232322A00FFF726
:1019C8007DFB636800EB5300B0FBF3F080B2E86086
:1019D800002038BDFFF78AFB636800EB5300B0FBBB
:1019E800F3F00F4B80B2D860F2E76268530803F552
:1019F800F40303F59053B3FBF2F3094A9BB2D360A7
:101A0800E6E7FFF77FFAE7E76268530803F5004364
:101A1800F1E7B2F5004FC6D0012038BDF369FFEFFA
:101A2800003801403425000800440040436ADA07C2
:101A380010B506D50168846A4A6822F40032224348
:101A48004A609C0706D50168C46A4A6822F4803255
:101A580022434A60590706D50168046B4A6822F494
:101A6800802222434A601A0706D50168446B4A68F7
:101A780022F4004222434A60DC0606D50168846BE2
:101A88008A6822F4805222438A60990606D5016842
:101A9800C46B8A6822F4005222438A605A060FD522
:101AA8000168046C4A6822F480122243B4F5801F4E
:101AB8004A6005D14A68446C22F4C00222434A6055
:101AC8001B0606D50268816C536823F400230B4378
:101AD800536010BD2DE9F041069D04460F46164699
:101AE80098462168CA6937EA02030CBF012200221E
:101AF800B24202D00020BDE8F0816B1CF2D09DB943
:101B080023681A6822F4D0721A609A6822F00102D7
:101B18009A60202384F8693084F86A30002384F8B6
:101B280068300320BDE8F081FEF78CFBA0EB0800CD
:101B38008542D6D2E4E72DE9F3411F4690F8693093
:101B4800202B04460D4690464CD1002948D0002A47
:101B580046D090F86830012B44D0012380F86830D3
:101B68000023C366212380F86930FEF76BFBA4F8D5
:101B780050800646A4F85280B4F8522092B262B956
:101B88000097334640212046FFF7A4FF98B9202349
:101B980084F8693084F868000EE0B4F85230009791
:101BA800013B9BB2A4F852300022334680212046E4
:101BB800FFF790FF18B1032002B0BDE8F081A368D9
:101BC8002268B3F5805F07D123692BB935F8023B4A
:101BD800C3F308031385CFE72B7813850135CBE7CB
:101BE8000120E9E70220E7E773B504460026C66648
:101BF800FEF728FB23681B681A07054617D42368D5
:101C08001B685B070AD56FF07E43009300222B46C2
:101C18004FF480012046FFF75DFFA0B92023002084
:101C280084F8693084F8680084F86A300CE06FF052
:101C38007E430093324603464FF400112046FFF7D7
:101C480049FF0028DBD0032002B070BD10B5044660
:101C580060B390F8693003F0FF021BB980F8682080
:101C680000F064FB2268242384F86930136823F0A9
:101C7800010313602046FFF733FE012816D0636A7C
:101C880013B12046FFF7D2FE23685A6822F4904227
:101C98005A609A6822F02A029A601A6842F0010291
:101CA80020461A60BDE81040FFF79EBF012010BD16
:101CB80090F86930212B27D1B0F8523002689BB2D6
:101CC8004BB9116821F080011160116841F04001A1
:101CD8001160002070478368B3F5805FC36C0ED134
:101CE800016961B933F8021BC1F308011185C364A6
:101CF800B0F85230013B9BB2A0F85230E9E7591CCA
:101D0800C1641B781385F3E702207047016808B5A2
:101D18000B6823F040030B60202380F86930FFF73D
:101D2800D1FD002008BD90F86A30222B10B5036859
:101D380029D1998C8368B0F85C20B3F5805F02EAFA
:101D48000102436D1BD10169C9B923F8022B436510
:101D5800B0F85A40013CA4B2A0F85A406CB90368E4
:101D68001A6822F490721A609A6822F001029A6046
:101D7800202380F86A30FFF7A6FD002010BD591C0B
:101D880041651A70E4E79A6942F008029A610220F4
:101D980010BD00000268D369116870B513F00F0513
:101DA800044607D19E0605D58E0603D5BDE87040CA
:101DB800FFF7B9BF9068002D5CD010F0010502D183
:101DC80011F4907F56D0D80707D5CE0505D5012048
:101DD8001062E06E40F00100E066980706D52DB16C
:101DE80002201062E06E40F00400E0665E0706D54F
:101DF8002DB104201062E06E40F00200E066180782
:101E080007D58E0600D425B108201062E26E024381
:101E1800E266E26E002A50D0980604D58A0602D5FA
:101E28002046FFF780FFE36E1B07204604D4236893
:101E38009D6815F0400519D0FFF737FD23689A68AB
:101E480056060FD59A68606E22F040029A6048B133
:101E58001A4B4363FEF7E6FC78B3606EBDE870404A
:101E6800436B18472046FFF72FFD70BDFFF72CFD89
:101E7800E56670BDDD020ED546020CD54FF4801321
:101E88001362202384F86930204684F86A30BDE85C
:101E9800704000F015B81D0606D5080604D5204682
:101EA800BDE87040FFF704BF5A0606D54B0604D5B7
:101EB8002046BDE87040FFF729BF70BDD318000861
:101EC80070470000084A136801331360074A116815
:101ED8004FF47A70B3FBF0F35B1A012B02BF13685F
:101EE80001331360704700BF300000202800002035
:101EF80010B59CB02822002105A800F0F3FA14229E
:101F08000021684600F0EEFA002134220FA800F004
:101F1800E9FA022301220024059309920C93102266
:101F28004FF4002305A80A920E93FEF775FD0F23C0
:101F3800214668468DE81800029403940494FFF73C
:101F480013F84FF484530F930FA84FF4807317942A
:101F58001593FFF7E3F81CB010BD000080B58EB0F4
:101F6800FEF752F9FFF7C4FF1422002108A800F079
:101F7800B9FA8B4B8B485A6942F400225A615A6964
:101F880002F400220192019A5A6942F480025A61CD
:101F98005A6902F480020292029A5A6942F40032A3
:101FA8005A615A6902F400320392039A5A6942F458
:101FB80080225A615B6903F48023049301224FF461
:101FC8000051049BFEF712FD00224FF410514FF010
:101FD80090400024FEF70AFD4FF40055022308A99B
:101FE8007148089501260A930994FEF73FFC6F4B48
:101FF8006D48099308A908960A94FEF737FC08A9C2
:102008006848089509960A940B94FEF72FFC4FF43C
:10201800105308A94FF09040089309960A940B941E
:10202800FEF724FC224621460620FEF7A5FB0620E3
:102038005F4DFEF7D5FB1822214608A800F052FA9A
:102048004FF0A04385E8180028460423EE622E626C
:102058006B61AC602C61EC616C622C63EC606C634E
:10206800AC61AC63FEF72CF9032308A92846089352
:1020780009960B940A940C940D94FEF707FA2146DE
:10208800102208A800F02EFA4A4D4B4AAC604FF4D3
:10209800FA5385E80C00284640F2E733EB602C61E0
:1020A8006C61AC61059406940794FFF7FFFA4FF44E
:1020B800805308A928460893FFF71CFB05A9284662
:1020C800059406940794FFF7CBFB2846FFF7EBF936
:1020D8003A483B4984604FF4164380E80A000C23D1
:1020E8004361C46004618461C46104624462FFF7AF
:1020F800ADFD3448344B84604FF4827580E8280085
:102108004FF44073C3604FF4007383610723C362C5
:102118000823436304614461C461046244628462C5
:102128000463FFF7EDF8314622461920FEF724FB39
:102138001920264D1C4EFEF753FB2F464FF4005135
:102148003046FEF74DFC224B18702B789842F5D09C
:10215800002BF3D14FF400511248FEF74CFC012339
:102168002B701C4B08AA03F1100E18685968144606
:1021780003C4083373452246F7D11B782370142211
:102188004FF47A7308A90D48FFF7D5FC4FF40051B6
:102198003046FEF725FC0028F8D13870CEE700BF9E
:1021A8000010024000040048000800480000111018
:1021B800A0000020F4000020002C01403401002081
:1021C800004400403C00002000380040340000205B
:1021D8002C000020382500080A4B9A6942F00102B9
:1021E8009A619A6982B002F001020092009ADA6953
:1021F80042F08052DA61DB6903F080530193019B5E
:1022080002B070470010024010B5044688B014228E
:10221800002103A800F066F92368B3F1A04F1ED18E
:1022280003F1704303F5043303A95A6942F080525D
:102238005A615A6902F080520192019A5A6942F42D
:1022480000325A615B6903F400330293029B0F2347
:1022580003934FF0904003230493FEF707FB08B065
:1022680010BD000070B5044688B01422002103A8F0
:1022780000F038F92268204B9A423BD103F5EC3341
:102288000224DA691D4842F48042DA61DA6902F40C
:1022980080420092009A5A6942F480025A615A694F
:1022A80002F480020192019A5A6942F480225A612A
:1022B8005B69039403F4802302930326052503A98D
:1022C800029B049406960795FEF7D0FA4FF4404314
:1022D800049403A900240A480393059406960795D5
:1022E800FEF7C4FA242022462146FEF745FA2420A8
:1022F800FEF776FA08B070BD0038004000140048B8
:10230800000400480268084B9A4282B00AD103F5DB
:1023180064439A6942F400629A619B6903F400631A
:102328000193019B02B07047002C014010B5044690
:1023380088B01422002103A800F0D4F82268174BB3
:102348009A4229D103F5E6330224DA6942F40032CD
:10235800DA61DA6902F400320192019A5A6942F4A8
:1023680000325A615B69049403F400330293029BC0
:102378004FF4404303930323069303A907234FF025
:1023880090400793FEF772FA262000222146FEF7B6
:10239800F3F92620FEF724FA08B010BD00440040E7
:1023A8007047FEE7FEE7FEE7FEE7704770477047B5
:1023B800FDF73CBF0120FEF723BB00000148FFF7F3
:1023C80082B800BFF40000200148FEF7EFBF00BF4D
:1023D8003C0000200148FFF7DDBC00BF34010020AD
:1023E8001549D1F8883043F47003C1F88830134B8D
:1023F8001A6842F001021A605868114A02405A608D
:102408001A6822F0847222F480321A601A6822F460
:1024180080221A605A6822F4FE025A60DA6A22F0B0
:102428000F02DA62186B074A02401A6300229A60A8
:102438004FF000638B60704700ED00E00010024031
:102448000CC07FF8CCFC00FFDFF834D0002103E09B
:102458000C4B5B58435004310B480C4B42189A42C2
:10246800F6D30B4A02E0002342F8043B094B9A4298
:10247800F9D3FFF7B5FF00F011F8FFF76FFDFEE79E
:10248800004000206C250008000000200C000020FF
:102498000C000020A4010020FEE7000070B50D4EDE
:1024A8000D4CA41BA4100025A54209D10B4E0C4CC1
:1024B80000F020F8A41BA4100025A54205D170BD8A
:1024C80056F8253098470135EEE756F825309847F5
:1024D8000135F2E764250008642500086425000832
:1024E8006825000802440346934200D1704703F868
:1024F800011BF9E7F8B500BFF8BC08BC9E46704759
:0C250800F8B500BFF8BC08BC9E46704748
:1025140002030405060708090A0B0C0D0E0F101020
:102524000102030405060708090A0B0C0D0E0F101F
:1025340000040802426F74746F6E65205072656DFA
:1025440075746F3B000000000000000000010203EE
:10255400040607080900000000010203040000004B
:04256400AD010008BD
:0425680089010008DD
:0C256C00010000001000000000127A00C6
:04000005080024517A
:00000001FF
